:020000040800F2
:10000000005000203D3F00083D3B0008413B0008F8
:10001000433B0008453B0008473B00080000000048
:10002000000000000000000000000000853F000804
:10003000493B000800000000853F00084B3B0008DA
:10004000853F0008853F0008853F0008853F000880
:10005000853F0008853F0008853F0008853F000870
:10006000853F0008853F0008853F0008853F000860
:10007000853F0008853F0008853F0008853F000850
:10008000853F0008853F0008853F0008853F000840
:100090004D3B0008853F0008853F0008853F00086C
:1000A000853F0008593B0008853F0008853F000850
:1000B000853F0008853F0008853F0008853F000810
:1000C000853F0008853F0008853F0008853F000800
:1000D000853F0008853F0008853F0008853F0008F0
:1000E000853F0008853F0008853F000800000000AC
:1000F0000000000000000000000000000000000000
:0C01000000000000000000005FF808F1A3
:10010C0010B5054C237833B9044B13B10448AFF345
:10011C0000800123237010BD0001002000000000AE
:10012C00E03F000808B5034B1BB103490348AFF38C
:10013C00008008BD0000000004010020E03F000822
:10014C00074A08B51368032043F01003136000F04E
:10015C0025F80F2003F0B0FC03F03CFC002008BD98
:10016C0000200240024A136801331360704700BF3D
:10017C001C010020014B1868704700BF1C010020B7
:10018C0013B50190FFF7F6FF0446FFF7F3FF019A52
:10019C00031B9342F9D302B010BD000007490302C0
:1001AC00CA6803F4E06322F4E0621204120C1343F5
:1001BC0043F0BF6343F40033CB60704700ED00E0C5
:1001CC00154B30B5DC68C4F30224C4F10703251DBC
:1001DC00042B28BF0423062D4FF0FF3594BF0024B9
:1001EC00033C05FA03F321EA0303A54022EA0502C6
:1001FC00A340002843EA0203ACBF00F16040074A69
:10020C004FEA0313DBB2B5BF00F00F0000F56140FD
:10021C00135480F8003330BD00ED00E014ED00E025
:10022C0001234109034A00F01F00834042F82130AA
:10023C00704700BF00E100E00138B0F1807F0BD2C5
:10024C004FF0E023F021054A586182F8231000207A
:10025C00072298611A6170470120704700ED00E099
:10026C004FF0E0231A6904280CBF42F0040222F07C
:10027C0004021A61704700002DE9F74F0022164660
:10028C00644F654BDFF894C1DFF894E14FF001083F
:10029C000D6808FA06F808EA050438EA05057AD16B
:1002AC004D68032D07D8013D022D00F28D80DFE84B
:1002BC0005F09BA0A600122D00F09E8072D8112D87
:1002CC0000F09480FF2C98BF82464FF00F0988BF36
:1002DC0000F1040A4FEA8605DAF8008088BF203D59
:1002EC0009FA05FB28EA0B0802FA05F548EA0505A8
:1002FC00CAF80050D1F804A01AF0805F4BD0BD6949
:10030C0026F0030845F00105BD61BD6908F1804880
:10031C0005F00105019508F5803806F0030B019DE9
:10032C004FEA8B0BD8F8085009FA0BF925EA0909A2
:10033C003C4DA84267D005F58065A84265D005F50F
:10034C008065A84263D005F58065A8420CBF0325E3
:10035C00042505FA0BF545EA0905C8F808501D688F
:10036C001AF4803F14BF2543A5431D605D681AF441
:10037C00003F14BF2543A5435D609D681AF4801FA0
:10038C0014BF2543A5439D60DD681AF4001F14BFFC
:10039C002543A543DD600136102E7FF477AF03B003
:1003AC00BDE8F08FDFF880904D450DD018D8A9F539
:1003BC0080194D4508D009F570294D4504D0A9F593
:1003CC0080194D457FF47EAF8A68D2B1012A08BFEF
:1003DC00C0F810804FF0080218BFC0F8148071E705
:1003EC006545F1D07545EDE7CA686BE7CA6804321C
:1003FC0068E7CA68083265E7CA680C3262E700220F
:10040C0060E704225EE70025A3E70125A1E70225AA
:10041C009FE700BF001002400004014000003110B3
:10042C000000321000080140000022100AB10161E6
:10043C0070470904FBE72DE9F041044686B000281B
:10044C005ED090F8E93303F0FF021BB980F8E82383
:10045C0003F0C4FB032325466E4684F8E93355F8B4
:10046C00100B01F09BFC0FCD0FC62B6804F1040898
:10047C00336098E80E00206801F080FC00212068B1
:10048C0001F096FC0021234622460126084604F181
:10049C00100582F82810918601310F29C2E90E004F
:1004AC0082F8296082F82B00106402F12002F0D14E
:1004BC000022174683F808229A8601320F2AC3E9D4
:1004CC00867783F8097283F80B72C3F8207203F1F4
:1004DC002003EFD16E460FCD0FC62B68336098E822
:1004EC000E00206801F066FC012384F8247020685B
:1004FC0084F8E93301F00DFF002006B0BDE8F0816F
:10050C000120FAE710B590F8E8330446012B0ED021
:10051C00012180F8E81303F08EFC206801F0F7FE4F
:10052C00206801F032FC002084F8E80310BD0220A2
:10053C00FCE710B590F8E8230446012A0BD0012201
:10054C0080F8241080F8E823006801F0DAFE00201F
:10055C0084F8E80310BD0220FCE738B5044648B225
:10056C00002801F07F05B5BF04EB451104EB4111E8
:10057C00283101F50271C00F0D7048700A61CB7003
:10058C0094F8E833012B09D00123206884F8E83370
:10059C0001F028FC002084F8E80338BD0220FCE7B9
:1005AC004BB210B5002B01F07F02B5BF00EB42112E
:1005BC0000EB4111283101F50271DB0F0A704B7011
:1005CC0090F8E8330446012B09D0012380F8E83376
:1005DC00006801F061FD002084F8E80310BD0220E2
:1005EC00FCE770B50446002601F07F00450105F5D7
:1005FC0002712544C5E98723C5F8246285F8096290
:10060C0085F8080294F8E8332144012B09D0012322
:10061C00206884F8E83301F093FE304684F8E863F0
:10062C0070BD0220FCE701F07F0100EB4110B0F837
:10063C002402704770B5044601F07F00450105F1B6
:10064C0028012544C5E90F23002601236E6485F893
:10065C00293085F8280094F8E82321449A4208D0E0
:10066C00206884F8E83301F06BFE304684F8E863C8
:10067C0070BD0220FCE700002DE9F347044600683A
:10068C0001F049FE000400F19480206801F043FE63
:10069C0041050FD522682046B2F8443023F480631C
:1006AC001B041B0CA2F8443003F0D1FA00212046A5
:1006BC00FFF73FFF206801F02EFE470408D52268A3
:1006CC00B2F8443023F480431B041B0CA2F84430D2
:1006DC00206801F020FE860408D52268B2F8443068
:1006EC0023F400531B041B0CA2F84430206801F0C7
:1006FC0012FEC50418D522682046B2F8403023F00B
:10070C0004031B041B0CA2F840304FF43D43A2F829
:10071C00403003F0B9FA2268B2F8443023F4805325
:10072C001B041B0CA2F84430206801F0F4FD0005FA
:10073C001DD52068B0F8443023F400631B041B0C57
:10074C00A0F84430B0F840309BB243F00803A0F856
:10075C004030B0F840309BB243F00403A0F8403076
:10076C0001F0D9FDC10402D4204603F07DFA2068C3
:10077C0001F0D1FD82050BD522682046B2F8443039
:10078C0023F400731B041B0CA2F8443003F05BFA37
:10079C00206801F0C0FDC30508D52268B2F84430CA
:1007AC0023F480731B041B0CA2F8443002B0BDE888
:1007BC00F0870023CA4ECB4FDFF82C83ADF8043002
:1007CC00ADF806302068B0F844309BB2ADF8043078
:1007DC001B047FF55AAFBDF8045015F00F0540F01F
:1007EC00AA80BDF80410038811F010019BB226D129
:1007FC0033400380B0F8503094F828209BB203EBC0
:10080C00C20300EB4303D3F80434E26BC3F30903D4
:10081C001A4463642046E26303F00EFA94F8243021
:10082C00002BCFD0226C2168002ACBD194F8243035
:10083C0043F08003A1F84C3084F82420C2E7ADF8D3
:10084C000630BDF806301A051FD5B0F8503094F8B4
:10085C0008229BB203EBC20300EB4303D3F80C3426
:10086C00B4F80C22C3F30903C4F8243204F57B71E9
:10087C0001F048FE22682046138823F070031B0504
:10088C001B0D138003F0CAF99CE7BDF806301B045E
:10089C0098D5038823F070031B051B0D0380B0F85B
:1008AC00503094F808229BB203EBC20300EB4303D5
:1008BC00D3F80C34C3F30903C4F8243263B1B4F88D
:1008CC000C22D4F81C1201F01DFED4F81C32D4F802
:1008DC0024221344C4F81C320021204603F0A4F94E
:1008EC002268D4F81852B2F850103E2D89B201F19A
:1008FC00060102F5806016D9C5F34F13ED0604BF4F
:10090C0003F1FF339BB248EA83239BB240F81130CA
:10091C0013889BB23B4083F4405343F4004343F0B1
:10092C00800313804EE7C5F34F03ED0744BF01333B
:10093C009BB29B02E9E730F825309BB2ADF806304C
:10094C00BDF80630190441D530F8253004EB4511BB
:10095C0023F070031B051B0D20F8253091F8123283
:10096C0000F580624FEA451A002B79D1B0F850306F
:10097C0091F808C29BB203EBCC03063352F8133048
:10098C00C3F30909B9F1000F06D0B1F80C224B469C
:10099C00D1F81C1201F0B6FD04EB0A01D1F8243297
:1009AC00D1F81C224B44C1F82432D1F820324A44ED
:1009BC00C1F81C2223B1D1F81802814580F08A803D
:1009CC00A24420469AF8081203F02EF9BDF806301E
:1009DC0020681A067FF5F6AE30F8253004EB451189
:1009EC009BB2334020F8253091F832304FEA45194C
:1009FC0000F580620235002B78D1B0F8503091F8B8
:100A0C0028C09BB203EBCC03023352F8133004EB37
:100A1C004515C3F309036B601BB18A8DC96B01F0DB
:100A2C0080FC2268A144B2F8503099F828109BB28F
:100A3C0003EBC10302EB4302D2F80434D9F83C2097
:100A4C00C3F309031A44C9F84430D9F8403020469E
:100A5C00C9F83C20002B40F0818003F0EDF8B1E6A2
:100A6C0091F808C230F82C304FEACC0C13F4804FBC
:100A7C00B0F850309BB2634420D0023352F813309C
:100A8C00C3F30909B9F1000F06D04B46B1F80E2299
:100A9C00D1F81C1201F036FD04EB0A0393F808128E
:100AAC00226832F8213023F0F0031B051B0D43F4B0
:100ABC00004343F0C00322F821306DE7063352F8AF
:100ACC001330C3F30909B9F1000FE5D04B46B1F867
:100ADC001022DDE7204691F80812FFF782FD75E73A
:100AEC000F8FFFFF8FBFFFFF0080FFFF91F828C023
:100AFC0030F82C304FEACC0C13F0400FB0F85030DB
:100B0C009BB263441ED0023352F8133004EB4515EC
:100B1C00C3F309036B601BB1CA8DC96B01F001FCF7
:100B2C0004EB090393F82810226832F8213023F0E3
:100B3C00F0031B051B0D43F4404343F0800322F8E4
:100B4C0021306EE7063352F8133004EB4515C3F32E
:100B5C0009036B60002BE3D00A8EDEE7FFF76AFD1A
:100B6C0030E600BF012238B54BB2002B01F07F05F7
:100B7C00B5BF00EB451100EB4111283101F50271B5
:100B8C00DB0F8A700D704B7090F8E833044693427B
:100B9C000ED080F8E823006801F041FB25B92068ED
:100BAC0004F57B7101F0BBFB002084F8E80338BD31
:100BBC000220FCE738B500254BB2002B01F07F0278
:100BCC00B5BF00EB421100EB4111283101F5027168
:100BDC00DB0F8D700A704B7090F8E8330446012BD4
:100BEC0009D0012380F8E833006801F04AFB28465D
:100BFC0084F8E85338BD0220FCE710B590F8E833D0
:100C0C000446012B10D0012380F8E8330B06006852
:100C1C0007D501F07F0101F0E1F8002084F8E8032A
:100C2C0010BD01F0DDF8F8E70220F9E711F0800FB4
:100C3C001BBF01F07F0100EB411000EB411028308D
:100C4C0008BF00F5027099B21AB982728180002037
:100C5C00704701221B0C8272C1800381F7E70000F0
:100C6C0003682DE9F341DE07054634D42B689C0755
:100C7C0000F1A7802B681A0723D5AA690123B94C68
:100C8C00B949002A00F0158193FAA3F2B2FA82F264
:100C9C0041F82230FFF76EFA0226074696FAA6F3C1
:100CAC0096FAA6F3626A96FAA6F3B3FA83F303F004
:100CBC001F0322FA03F3DB0740F1F4800120FFF756
:100CCC005FFA2B68590700F11481EA69002A40F099
:100CDC008881002020E0A34C636803F00C03042BF4
:100CEC0007D0636803F00C03082B18D16368D80392
:100CFC0015D54FF4003393FAA3F2226893FAA3F3B9
:100D0C00B3FA83F303F01F0322FA03F3D907ADD52B
:100D1C006B68002BAAD1012002B0BDE8F0816B6892
:100D2C00B3F5803F1CD1236843F480332360FFF775
:100D3C0021FA4FF40037064697FAA7F3226897FA80
:100D4C00A7F3B3FA83F303F01F0322FA03F3DA07D2
:100D5C008CD4FFF70FFA801B6428EDD90320DBE756
:100D6C0003BB23684FF4003723F4803323602368DC
:100D7C0023F480232360FFF7FDF9064697FAA7F3C7
:100D8C00226897FAA7F3B3FA83F303F01F0322FA4E
:100D9C0003F3DB077FF56AAFFFF7ECF9801B6428E0
:100DAC00ECD9DBE7B3F5A02F236803D143F4802300
:100DBC002360B8E723F480332360236823F4802373
:100DCC00B4E7684C636813F00C0F07D0636803F04A
:100DDC000C03082B20D16368DF031DD4022393FA84
:100DEC00A3F2226893FAA3F3B3FA83F303F01F037D
:100DFC0022FA03F3DE0702D52B69012B8BD1F822E3
:100E0C00216892FAA2F2B2FA82F26B69934021F055
:100E1C00F802134323602DE72A69012302B393FAE6
:100E2C00A3F2B2FA82F2920002F1844202F5840239
:100E3C001360FFF79FF90227064697FAA7F322687B
:100E4C0097FAA7F3B3FA83F303F01F0322FA03F321
:100E5C00D807D4D4FFF78EF9801B0228EDD97DE793
:100E6C0093FAA3F3B3FA83F39B0003F1844303F5E2
:100E7C0084031A60FFF77EF90227064697FAA7F358
:100E8C00226897FAA7F3B3FA83F303F01F0322FA4D
:100E9C0003F3D9077FF5EEAEFFF76CF9801B022840
:100EAC00ECD95BE7FFF766F9C01B02287FF6F6AEBC
:100EBC0054E793FAA3F3B3FA83F341F82320FFF733
:100ECC0059F90226074696FAA6F396FAA6F3626A31
:100EDC0096FAA6F3B3FA83F303F01F0322FA03F393
:100EEC00D8077FF5EEAEFFF745F9C01B0228EAD90B
:100EFC0034E71C4C1D4EE36943F08053E361E36916
:100F0C0003F080530193019B336843F48073336087
:100F1C00FFF730F907463368DA0529D5EB68012B62
:100F2C002CD1236A43F001032362FFF723F9022635
:100F3C00074641F2883896FAA6F396FAA6F3226A87
:100F4C0096FAA6F3B3FA83F303F01F0322FA03F322
:100F5C00DB073FF5BAAEFFF70DF9C01B4045EAD9E8
:100F6C00FCE600BF001002408004424200700040CA
:100F7C00FFF700F9C01B6428CDD9EFE61BBB236A31
:100F8C00022623F001032362236A41F2883823F0FE
:100F9C0004032362FFF7EEF8074696FAA6F396FAD7
:100FAC00A6F3226A96FAA6F3B3FA83F303F01F03AF
:100FBC0022FA03F3D8077FF588AEFFF7DBF8C01BE6
:100FCC004045EAD9CAE6052B236A03D143F0040352
:100FDC002362A6E723F001032362236A23F00403B0
:100FEC00A2E7444C636803F00C03082B3FF493AE68
:100FFC00022A4FF0807359D193FAA3F3B3FA83F317
:10100C0000229B0003F1844303F584031A60FFF76D
:10101C00B1F84FF00077064697FAA7F3226897FAD3
:10102C00A7F3B3FA83F303F01F0322FA03F3D907F0
:10103C0036D42B6AB3F5803F05D16268A96822F4D7
:10104C0000320A4362606268696A22F474120B43CC
:10105C00134363604FF0807393FAA3F3B3FA83F3F3
:10106C0001229B0003F1844303F584031A60FFF70C
:10107C0081F84FF00076054696FAA6F3226896FAA8
:10108C00A6F3B3FA83F303F01F0322FA03F3DA0790
:10109C003FF51FAEFFF76EF8401B0228ECD95DE65A
:1010AC00FFF768F8801B0228B6D957E693FAA3F32A
:1010BC00B3FA83F300229B0003F1844303F584030A
:1010CC001A60FFF757F84FF00076054696FAA6F32C
:1010DC00226896FAA6F3B3FA83F303F01F0322FAFD
:1010EC0003F3DB077FF5F5ADFFF744F8401B02284F
:1010FC00ECD933E60010024030B51F4B87B002AC80
:10110C0003F11005224618685968083303C2AB4234
:10111C001446F7D140F20123184CADF80430616845
:10112C0001F00C03082B24D14FF4701292FAA2F2A6
:10113C00B2FA82F201F47013D34018336B4413F8F3
:10114C00100CCB0313D563684FF4003292FAA2F261
:10115C00B2FA82F203F40033D34018336B4413F821
:10116C00142C074BB3FBF2F3584307B030BD054BBF
:10117C00FAE70348F9E700BFF83F00080010024007
:10118C0000127A0000093D00544A2DE9F041136821
:10119C00044603F007038B420D462FD322689607B3
:1011AC0039D4D0073FD44D4A136803F00703AB4240
:1011BC0000F2828022684A4D12F0040F40F08780C2
:1011CC00130706D56B68226923F4605343EAC20304
:1011DC006B60FFF791FFF0226B6892FAA2F2B2FA01
:1011EC0082F203F0F003D3403E4AD35CD8403E4B2E
:1011FC0018600F2002F060FC00200AE0136823F056
:10120C0007030B431360136803F007038B42C5D02D
:10121C000120BDE8F0813249A0684B6823F0F0034F
:10122C0003434B60BDE762682D4E012A27D14FF472
:10123C00003393FAA3F1316893FAA3F3B3FA83F36F
:10124C0003F01F0321FA03F3D907E1D5736841F2C8
:10125C00883823F0030313437360FEF78BFF636836
:10126C000746012B11D1736803F00C03042B9AD0A1
:10127C00FEF780FFC01B4045F5D90320C9E7022AC1
:10128C000CBF4FF000730223D3E7022B0FD173680E
:10129C0003F00C03082B86D0FEF76CFFC01B4045F7
:1012AC00F5D9EAE7FEF766FFC01B4045E5D8736841
:1012BC0013F00C0FF6D176E7136823F007032B43DA
:1012CC001360136803F00703AB42A1D172E76B689C
:1012DC00E16823F4E0630B436B6071E7002002408C
:1012EC000010024020400008A4000020014B1868A8
:1012FC00704700BFA4000020084B4FF460525B689D
:10130C0092FAA2F2B2FA82F203F46053D340044A86
:10131C00D35C044A1068D840704700BF00100240EC
:10132C0030400008A40000200F2303600B4B5A68C8
:10133C0002F0030242605A6802F0F00282605A68BE
:10134C0002F4E062C2605B68DB0803F4E0630361F3
:10135C00034B1B6803F007030B607047001002403F
:10136C00002002407047000010B5044CA3681B0617
:10137C0003D5FFF7F7FF8023A37210BD00100240C6
:10138C0003682DE9F341DC0705461FD53A4C3B4E6B
:10139C00E36943F08053E361E36903F08053019305
:1013AC00019B336843F480733360FEF7E3FE07461A
:1013BC003368D80520D5236A6A6813F4407324D1A6
:1013CC00236A6A6823F440731343236228688307F3
:1013DC0006D52949AB684A6822F440421A434A6050
:1013EC0010F010000ED0244AE9685368002023F452
:1013FC0080030B43536005E0FEF7BCFEC01B642862
:10140C00D6D9032002B0BDE8F08102F440729A42B2
:10141C00D6D0216A4FF4803321F4407693FAA3F2AC
:10142C000127B2FA82F2164840F8227093FAA3F31D
:10143C000022B3FA83F3C90740F823202662BFD5F4
:10144C00FEF798FE0226074641F2883896FAA6F374
:10145C0096FAA6F3226A96FAA6F3B3FA83F303F08C
:10146C001F0322FA03F3DA07AAD4FEF783FEC01B8C
:10147C004045EBD9C5E700BF0010024000700040AA
:10148C00000442422DE9F04104460E4690461D46AA
:10149C00FEF770FE0746B8F1000F32D02268936851
:1014AC0036EA030332D16B1CF9D06DB1FEF762FE44
:1014BC00C01BA842F2D907E0691C23D025B1FEF766
:1014CC0059FEC01BA8421CD923685A6822F0E002BE
:1014DC005A601A6822F040021A60A26AB2F5005FE4
:1014EC0007D11A6822F400521A601A6842F40052AA
:1014FC001A60012384F851300023032084F8503003
:10150C0005E02268936836EA0303D5D10020BDE8D4
:10151C00F08173B51D4690F851300446012BD8B2BA
:10152C0040F0A28000295ED0002A5CD094F85030A4
:10153C00012B00F09980122384F851300023C4E968
:10154C001233C4E90E336365A36A84F85000B3F513
:10155C00005F20682163A286E28607D1036823F42A
:10156C0000530360036843F400530360A368E66808
:10157C00B3F5004F02BF036843F480430360036874
:10158C005B065EBF036843F0400303606368002E94
:10159C0035D10BB1012A05D14B1C23630B78013AD1
:1015AC00C360E286E38EB3B9A36A0221B3F5005F90
:1015BC0008BF2268204602BF136843F480531360AF
:1015CC002B460022FFF75EFF002836D0636D43F0F8
:1015DC001003636506E02B46002202212046FFF72C
:1015EC0051FF10B1032002B070BD236B5A1C226353
:1015FC001B782268D360E38E013BE386D2E70BB104
:10160C00012A05D131F8023B013AC3602163E2861D
:10161C00E38E002BC8D02B46002202212046FFF778
:10162C0031FF0028DED1236B226833F8021BD16016
:10163C002363E38E013BE386EAE72B4601228021FC
:10164C002046FFF71FFF0028C0D1A3682BB92368E1
:10165C00DA6801929B680193019B012384F8513055
:10166C00002384F85030BEE70220BCE7F7B50446EF
:10167C0018460023ADF8063094F85130089D012B24
:10168C0004D094F85130222B40F04281002900F014
:10169C003981002A00F03681002800F0338194F85B
:1016AC005030012B00F03481012384F8503094F831
:1016BC005130A66A012B04BF322384F85130002329
:1016CC00B6F5005FA263C4E9123322686365A08794
:1016DC00E0872163A086E08607D1136823F40053CA
:1016EC001360136843F40053136013685F0658BF0C
:1016FC001368E7685CBF43F040031360B7F5006FF5
:10170C0063686ED123B1B3F5827F62D1012860D1B9
:10171C0031F8023B013880B2D3602163E0860028A7
:10172C0057D1B6F5005F02BF136843F480531360C2
:10173C002B46002201212046FFF7A4FED0B92368D6
:10174C00DA68A36B23F8022BA363E38F013BE387D7
:10175C00A36AB3F5005F40F0B1802B460022012153
:10176C002046FFF78FFE002800F0A180636D43F048
:10177C0002036365032003B0F0BD2B460022022157
:10178C002046FFF77FFE0028F4D1236B226833F844
:10179C00021BD1602363E38E013B9BB2E3863BB912
:1017AC00A36AB3F5005F02BF136843F48053136060
:1017BC002B46002201212046FFF764FE0028D9D1D8
:1017CC002368DA68A36B23F8022BA363E38F013B36
:1017DC00E387E38E002BD0D16268002AB8D12B4668
:1017EC00A8E723B1B3F5827F4CD101284AD14B1C19
:1017FC0023630B78013880B2D360E086002841D196
:10180C00B6F5005F08BF13684FF0010104BF43F445
:10181C008053136020462B460022FFF733FE00282E
:10182C00A8D12368DA68A36B1A708EE72B460022C6
:10183C0002212046FFF726FE00289BD1236B5A1C61
:10184C0022631B782268D360E38E013B9BB2E38654
:10185C003BB9A36AB3F5005F02BF136843F480532E
:10186C0013602B46002201212046FFF70BFE0028B7
:10187C0080D12368DA68A36B591CA1631A70E38FBB
:10188C00013BE387E38E002BD0D16268002A7FF402
:10189C005FAF2B4601212046FFF7F4FD00287FF4B3
:1018AC0069AF2368DA68A36B591CA163BCE7236892
:1018BC00DB689BB2ADF80630BDF806302B46012232
:1018CC0080212046FFF7DEFD18B1636D43F0100355
:1018DC004FE70121A36A84F85110B3F5005F13D1CF
:1018EC0023689A68D2060FD5626D42F002026265D7
:1018FC001A6822F400521A601A6842F400521A60F4
:10190C0084F85000012036E7002384F8503032E789
:10191C00022030E77FB51E460023ADF80E3004469A
:10192C0090F851000128C5B240F0E480002961D044
:10193C00002A5FD094F85000012800F0DB802220B0
:10194C0084F85100A06884F85050B0F5004F08BFDF
:10195C0025686365C4E91233C4E90C3308BF2B68EE
:10196C00A16308BF23F48043A287E28708BF2B60E2
:10197C00A36AB3F5005F08D123681D6825F40055F0
:10198C001D601D6845F400551D606368B3F5827FCA
:10199C000AD148B9134684F850000A4620460096EE
:1019AC00FFF764FE054625E023681A6852065EBF01
:1019BC001A6842F040021A60E3683BB3E38F012BD4
:1019CC0027D93346002201212046FFF75BFD80B961
:1019DC002368DA68A36B23F8022BA363E38F013B24
:1019EC00E387EBE73346002201212046FFF74AFD4F
:1019FC0018B10325284604B070BD2368DA68A36BC0
:101A0C00591CA1631A70E38F013BE387E38F012B11
:101A1C00E8D8A36A0121B3F5005F08BF226820460D
:101A2C0002BF136843F48053136033460022FFF760
:101A3C0029FD05460028DCD12268E168A36BD26839
:101A4C00A9B9591CA1631A70E38F013BE387A36A00
:101A5C00B3F5005F16D13346002201212046FFF773
:101A6C0011FD40B1636D43F002036365C1E723F8D8
:101A7C00022BA363E8E72368DB689BB2ADF80E305A
:101A8C00BDF80E306368B3F5827F0BD1A368B3F554
:101A9C00004F02D0B3F5806F04D12268136823F095
:101AAC0040031360012384F85130A36AB3F5005F3F
:101ABC001CD123689B68DB0618D5204600F05AF829
:101ACC00012823680FD1626D42F0020262651A6828
:101ADC0022F400521A601A6842F400521A60002371
:101AEC0084F850305EE76FF010029A60002384F89F
:101AFC0050307FE702257DE710B50446002834D02E
:101B0C0090F851300BB901F0ABFF0223216884F837
:101B1C0051300B68A26923F040030B60D4E901300B
:101B2C000343E06803432069034360690343E069AE
:101B3C000343206A0343A06A034302F40070034387
:101B4C0000200B60120C636A02F004021A43E36A71
:101B5C004A600B61CB6923F40063CB61044B606575
:101B6C001870012384F8513010BD0120FCE700BF30
:101B7C002001002001207047704703680020DA68BC
:101B8C0042F00102DA601A6842F001021A607047F2
:101B9C007047704770477047036810B51A69044660
:101BAC0091070ED5DA6892070BD56FF002021A6115
:101BBC00012202769B699B0777D0FFF7EAFF00238F
:101BCC00237623681A69500710D5DA6851070DD5AA
:101BDC006FF004021A61022222769B69204613F4EC
:101BEC00407F68D0FFF7D5FF0023237623681A695E
:101BFC0012070FD5DA6810070CD56FF008021A61BE
:101C0C0004222276DB69204699075AD0FFF7C1FFE0
:101C1C000023237623681A69D20610D5DA68D00619
:101C2C000DD56FF010021A6108222276DB6920466E
:101C3C0013F4407F4BD0FFF7ACFF002323762368CF
:101C4C001A69D10708D5DA68D20705D56FF00102F9
:101C5C0020461A6101F0B4FE23681A69100608D5F3
:101C6C00DA68110605D56FF0800220461A6100F083
:101C7C0084F823681A69520608D5DA68500605D527
:101C8C006FF0400220461A61FFF785FF23681A693E
:101C9C00910622D5DA6892061FD56FF020022046F5
:101CAC00BDE810401A6100F067B8FFF771FF2046DD
:101CBC00FFF770FF83E7FFF76BFF2046FFF76AFF24
:101CCC0092E7FFF765FF2046FFF764FFA0E7FFF7F9
:101CDC005FFF2046FFF75EFFAFE710BD184A0368B1
:101CEC0090420AD0B0F1804F07D0A2F594329042C6
:101CFC0003D002F58062904215D14A6823F070033C
:101D0C0013430F4A90420AD0B0F1804F07D0A2F58E
:101D1C009432904203D002F58062904203D1CA689B
:101D2C0023F44073134303608B68C3620B688362B4
:101D3C00034B984204BF0B69036301234361704753
:101D4C00002C014010B50446A0B190F8393003F0D6
:101D5C00FF021BB980F83820FFF70EFF0223206822
:101D6C0084F83930211DFFF7B9FF0123002084F8D6
:101D7C00393010BD0120FCE77047704784B001A8D2
:101D8C0080E80E0004B000207047B0F840309BB2E1
:101D9C0043F43D43A0F8403000207047B0F8403089
:101DAC0023F474535B045B0CA0F8403000207047A4
:101DBC000020704784B010B5044603A880E80E00DC
:101DCC0000200123A4F84030A4F84000A4F84400FB
:101DDC00A4F85000BDE8104004B0704700207047D4
:101DEC0000207047F0B5CB780A78032B0FD8DFE8CA
:101DFC0003F002614D5630F8223023F4EC4323F00B
:101E0C0070031B041B0C43F4007320F8223040F6C3
:101E1C000F720B7800F5806530F8234014401C439A
:101E2C0044F4004444F0800420F823408E7ADC0013
:101E3C00002E40F08B808E884F7876087600002F2D
:101E4C0043D0B0F8501089B2214445F8116030F8F5
:101E5C002310490608D530F823100A4042F40042FA
:101E6C0042F0C00220F8232030F8232022F4E04274
:101E7C0022F040021204120C82F0200242F40042C2
:101E8C0042F0800220F823200020F0BD30F82230F0
:101E9C0023F4EC4323F070031B041B0CB5E730F860
:101EAC00223023F4EC4323F070031B041B0C43F48B
:101EBC00C063AAE730F8223023F4EC4323F070031C
:101ECC001B041B0C43F480639FE7B0F8502092B2C4
:101EDC002244043245F81260B0F85020096992B2DD
:101EEC0014443E2904F1060428D9C1F34F16CA063E
:101EFC0008BF06F1FF36674A08BFB6B242EA86222F
:101F0C0092B245F8142030F8232056040BD530F843
:101F1C00232022F0F0021205120D42F4404242F04E
:101F2C00800220F8232030F8232022F4804222F073
:101F3C0070021204120C82F440529FE7C1F34F025C
:101F4C00CF0744BF013292B29202D9E730F8236036
:101F5C0026F4F8763605360D46F4014646F0800632
:101F6C0020F82360B0F85060CF88B6B27F082644C2
:101F7C007F0045F81670B0F85060B6B234440E8944
:101F8C0004347608760045F814604978002943D16A
:101F9C0030F823104D0408D530F823100A4042F4D1
:101FAC00404242F0800220F8232030F823205406CF
:101FBC000BD530F8232022F0F0021205120D42F45A
:101FCC00004242F0C00220F8232048F2800130F891
:101FDC00232022F0F0021205120D42F4004242F0CE
:101FEC00C00220F8232030F8232022F4804222F073
:101FFC0070021204120C82F440520A4320F823207F
:10200C0030F8232022F4E04222F040021204120C99
:10201C00114320F8231037E730F82310490408D572
:10202C0030F823100A4042F4404242F0800220F87B
:10203C00232030F8232052060BD530F8232022F031
:10204C00F0021205120D42F4004242F0C00220F8D8
:10205C00232048F2800130F8232022F0F0021205F0
:10206C00120D42F4404242F0800220F8232030F856
:10207C00232022F4E04222F040021204120C0A4304
:10208C0020F8232030F8232022F4804222F0700222
:10209C00BCE700BF0080FFFF4A780B78897AB9BB98
:1020AC00FAB130F8232051060BD530F8232022F05A
:1020BC00F0021205120D42F4004242F0C00220F868
:1020CC00232030F8232022F4E04222F040021204B4
:1020DC00120C42F4004242F0800220F8232000202F
:1020EC00704730F8232052040BD530F8232022F00F
:1020FC00F0021205120D42F4404242F0800220F828
:10210C00232030F8232022F4804222F07002DEE7F4
:10211C00002A44D130F8232051040BD530F8232069
:10212C0022F0F0021205120D42F4404242F08002FD
:10213C0020F8232030F8232052060BD530F823202A
:10214C0022F0F0021205120D42F4004242F0C002DD
:10215C0020F8232048F2800130F8232022F0F002EE
:10216C001205120D42F4004242F0C00220F8232066
:10217C0030F8232022F4804222F070021204120C58
:10218C000A4320F8232030F8232022F4E04222F0E6
:10219C0040021204120C114320F823109FE730F870
:1021AC00232051040BD530F8232022F0F002120525
:1021BC00120D42F4404242F0800220F8232030F805
:1021CC00232052060BD530F8232022F0F002120502
:1021DC00120D42F4004242F0C00220F8232048F2D3
:1021EC00800130F8232022F0F0021205120D42F487
:1021FC00404242F0800220F8232030F8232022F4C1
:10220C00E04222F040021204120C0A4320F8232070
:10221C0030F8232022F4804222F07002B9E70A78C9
:10222C008AB9038823F4804323F040031B041B0C5E
:10223C0083F4805383F0100343F4004343F0800392
:10224C000380002070474B7883B130F8223023F4A0
:10225C00E04323F040031B041B0C83F0100343F4F6
:10226C00004343F0800320F82230EAE730F82230B4
:10227C0023F4804323F070031B041B0C83F4805362
:10228C00EDE74B780A780BB330F8223059060BD5B2
:10229C0030F8223023F0F0031B051B0D43F40043F0
:1022AC0043F0C00320F8223030F8223023F4E0430E
:1022BC0023F040031B041B0C83F0300343F4004356
:1022CC0043F0800320F822300020704730F8223091
:1022DC005B040BD530F8223023F0F0031B051B0DEB
:1022EC0043F4404343F0800320F8223030F822308E
:1022FC0023F4804323F070031B041B0C83F4405322
:10230C00DCE711B98023A0F84C3000207047002086
:10231C00704700207047B0F8440080B2704700202E
:10232C007047013300F580605B1000EB420203B98B
:10233C00704731F8020B013B22F8040BF7E7000061
:10234C00F8B54A780546012A0E468C690B69887ADD
:10235C005BD19C428ABFE21A00221C468A61A3B25E
:10236C00496905F58067F8B9B2882846FFF7D9FFA7
:10237C00B5F8503032789BB203EBC203023347F806
:10238C001340327835F8223023F4E04323F0400335
:10239C001B041B0C83F0300343F4004343F0800315
:1023AC00002025F82230F8BD307835F82020C00008
:1023BC0012F0400FB5F8502092B2024402F1020222
:1023CC0047F81240284614BF3289F288FFF7A9FF5C
:1023DC007378327863B935F8223023F0F0031B059B
:1023EC001B0D43F4004343F0C00325F82230C8E72B
:1023FC00012BC6D135F8223023F0F0031B051B0D41
:10240C0043F4404343F08003EFE79C4294BF002128
:10241C00E11AB16188BF1C46337860BBB5F8502017
:10242C003E2C92B202EBC30202F1060205F580606B
:10243C0019D9C4F34F11E40608BF01F1FF31304B39
:10244C0008BF89B243EA81239BB240F8123032783C
:10245C0035F8223023F4804323F070031B041B0C4B
:10246C0083F4405398E7C4F34F03E10744BF0133AF
:10247C009BB29B02E8E7002AE9D1B5F850103E2C3C
:10248C0089B201EBC3014FEAC30005F5806201F18B
:10249C0002011DD9C4F34F17E30608BF07F1FF373C
:1024AC00174B08BFBFB243EA87239BB242F81130E7
:1024BC00B5F850103E2C89B2014401F106010FD839
:1024CC00C4F34F03E00744BF01339BB29B0212E0FD
:1024DC00C4F34F03E70744BF01339BB29B02E4E70D
:1024EC00C4F34F10E40608BF00F1FF30044B08BFE3
:1024FC0080B243EA80239BB242F81130A7E700BFB9
:10250C000080FFFF013300F580605B1000EB4200A0
:10251C0003B9704750F8042B013B21F8022BF7E765
:10252C00202303800048704758000020202303809C
:10253C000048704738000020202303800048704773
:10254C00840000200A230380004870477800002094
:10255C0010B5037C0446C3B94FF400730222012169
:10256C0001F0DCFB4FF4007302228121204601F0C4
:10257C00D5FB4FF41B7001F059FCC4F8180258B18C
:10258C00204600F0BCF8002010BD4023022201219F
:10259C0001F0C4FB4023E7E70120F5E710B5044642
:1025AC00012101F0CBFB8121204601F0C7FB204625
:1025BC0000F0CDF8D4F8180220B101F03BFC002358
:1025CC00C4F81832002010BD2DE9F0410B780746F5
:1025DC0013F060050C46D0F818822DD0202D5DD15B
:1025EC004A78FE2A05D0FF2A19D000F050FE0225A9
:1025FC001FE04D8885B9CE88012E0DD11A060BD55A
:10260C00D0F81C329B6998473246C8F80000414606
:10261C00384600F063FE0CE021463846E5E74A8870
:10262C00002AF9D1CD88002DF6D11B06F4D400F088
:10263C0083F82846BDE8F0814E780A2E1CD00B2E6C
:10264C001ED0012EF5D1097901F086FB384621798F
:10265C0001F074FB94F90430002B3B7C16DA9BB927
:10266C004FF4007302228121384601F057FB3846A3
:10267C00217900F013F9DCE7012208F10401C8E725
:10268C008B78C8F80430D4E74023EBE723B94FF438
:10269C00007302223146E7E74023FAE70025C8E73A
:1026AC0008B500F075F8002008BD08B500F08CF8EE
:1026BC00002008BD09B1C0F81C120020704770B58D
:1026CC00D0F81852044695F818323BB9D5F81432A4
:1026DC0023B16B7A13B9012101F04CFB8121204607
:1026EC0001F048FB6B7A022B08D1204605F50372EA
:1026FC001F23BDE87040012101F084BB70BD70B593
:10270C000446D0F8185200202881A5F85C02D4F8B1
:10271C001C321B6898470121204601F01DFB8121CA
:10272C00204601F019FB204605F503721F23BDE876
:10273C007040012101F066BB4FF48073D0F8182271
:10274C00012113811F2302F5037201F05BBB0022F0
:10275C00D0F818321A72704770B50C4BD0F818427A
:10276C000546C4F82C32002384F83812237204F581
:10277C000B720D23812101F037FB284604F50372FF
:10278C001F23BDE87040012101F03CBB555342535F
:10279C0010B5D0F8181204460B7A022B07D0033B65
:1027AC00012B0FD80021BDE81040FFF7D5BF01F277
:1027BC001B2291F8191200F099F8002802DA012175
:1027CC002046F0E710BD000070B5D0F81842054661
:1027DC00267A16B1012E56D070BDD4F810320121D4
:1027EC00C4F83032D4F81432C4F8343201F018FB87
:1027FC001F2894F819120BD1D4F80C22264B9A42AC
:10280C0006D1012904D894F81A32013B0F2B0BD9AD
:10281C0020230522284600F073FA0223637228460F
:10282C00BDE87040FFF74BBF284604F21B2200F0B6
:10283C005DF80028237A07DA052BF0D10121284610
:10284C00BDE87040FFF788BF013B022BC4D96189FA
:10285C000029F4D0D5F818322846D3F8142283F87E
:10286C003862914228BF1146D3F83422521AC3F869
:10287C00342204221A728BB204F10C028121BDE8BD
:10288C00704001F0B1BA94F8191204F21B2200F056
:10289C002DF80028A0DAD1E75553424310B5D0F8F3
:1028AC001842637A022B05D1812101F063FA0023CF
:1028BC00637210BD0A06FCD5012BFAD0BDE810409E
:1028CC000121FFF749BF90F85D3210B500EBC3044E
:1028DC000133DBB2042B08BF0023120284F83C1234
:1028EC00C4F8402280F85D3210BD00002DE9F7439A
:1028FC00137806462F2B0D461746D0F818423BD8B6
:10290C00192B07D8032B54D0122B7FD0002B39D086
:10291C002022E5E11A3B152BFAD801A252F823F03C
:10292C00552A00084F2A00081D2900081D290008F7
:10293C004F2A00081D2900081D2900081D29000820
:10294C001D290008652A00081D290008B32A000863
:10295C001D2900081D290008ED2A00081D29000862
:10296C00C52B00081D2900081D2900081D29000879
:10297C001D290008E32C00085A2BC9D10823C24A90
:10298C00638164E0D4F81432002BC1D1D0F81C322E
:10299C0008469B6898470546002853D03A220221E6
:1029AC00D6F81802FFF78FFF052323724FF0FF357F
:1029BC0028E01222002104F10C0001F0DEFA702351
:1029CC0023730C2394F85D22E37494F85C329A42DE
:1029DC0011D004EBC3020133DBB2042B08BF00237C
:1029EC0092F83C12A17392F84112217692F840228F
:1029FC0084F85C326276122363813B79122B98BF88
:102A0C0063810025284603B0BDE8F0835378DB07CB
:102A1C0014D4D0F81C32DA69242303FB0122137975
:102A2C00397905338B4228BF0B466381002BE8D0E4
:102A3C00013B9BB2D05CE1180873F7E70723934A7C
:102A4C00F3E700256581DDE70823914A638113686C
:102A5C00E36053682361D4E70023E360236163617F
:102A6C00D0F81C320DF1020228465B6801A9984788
:102A7C00054620B13A220221D6F81802C9E00823F3
:102A8C00E373019B013B1A0E22741A0C6274E374FB
:102A9C001A0ABDF80230A2745BBA0222E3820C233C
:102AAC00A2826381AEE7D0F81C3204F25E22284683
:102ABC005B6804F51871984705460028DAD1D4F8FC
:102ACC0060322082013B1A0E22731A0C6273E3737C
:102ADC001A0AB4F85E32A2735BBA63820823E0E789
:102AEC00237A6BBB94F91832002BBFF611AFD0F8D8
:102AFC001C3208469B6898470028BBD1D7F80220A7
:102B0C00D6F8180212BAC4F86422B7F80730D0F815
:102B1C0060125BBA9BB29F188F42C4F8683276D8A9
:102B2C0002212172B4F85E124A434B43C4F864226A
:102B3C00D4F81422C4F86832934201D0202267E002
:102B4C004FF400736381D6F81842D6F81C02D4F8FF
:102B5C006872B4F85E229F4228BF1F46B7FBF2F39F
:102B6C00D4F8641204F10C08B1FBF2F2D0F8109016
:102B7C00414628469BB2C847002802DA112204219C
:102B8C007AE7BBB242468121304601F02DF9D4F8E8
:102B9C006432D4F868523B44C4F86432D4F834320A
:102BAC00ED1BDB1BC4F86852C4F83432002D7FF4E3
:102BBC0028AF0323237225E7237A002B47D194F9FE
:102BCC001832002BFFF6A4AED0F81C3208469B68D6
:102BDC00984700287FF44EAFD6F81C322846DB68A5
:102BEC009847054608B1272245E7D7F80220D6F8C2
:102BFC00180212BAC4F86422B7F80730D0F8601281
:102C0C005BBA9BB2D7188F42C4F8683204D9212220
:102C1C000521FFF758FEC9E6B4F85E124A434B4350
:102C2C00C4F86422D4F81422C4F86832934285D1D3
:102C3C00B3F5007F4FF0010128BF4FF4007330460D
:102C4C0021729BB204F10C0201F0DCF8DAE6D4F844
:102C5C006872B4F85E22B7F5007F28BF4FF4007796
:102C6C00B7FBF2F3D4F86412D0F81C0204F10C0890
:102C7C00B1FBF2F2D0F81490414628469BB2C847FB
:102C8C00002807DA03227AE70940000819400008F7
:102C9C0011400008D4F86432D4F868523B44C4F8AC
:102CAC006432D4F83432ED1BDB1BC4F86852C4F820
:102CBC00343225B929463046FFF74EFDA2E6B5F56C
:102CCC00007F28BF4FF40075424601213046ABB25D
:102CDC0001F098F895E67D7815F0020503D02422D2
:102CEC000521204695E7D4F86422B4F868321344E1
:102CFC00D4F8602293427FF6A5AE2122F0E700BF04
:102D0C0010B5D0F818021B0290F85D1200EBC1044C
:102D1C00C4F840324B1CDBB2042B08BF002384F8F0
:102D2C003C2280F85D3210BD08B580B1D0F8143269
:102D3C0013B10023C0F8143209B1C0F810120123EA
:102D4C00027080F8FC3100F0A3FF002008BD0220C7
:102D5C00FCE719B1C0F8141200207047022070472C
:102D6C0008B500F0CDFF002008BD08B5D0F814322E
:102D7C0033B11B689847003818BF0120400008BDCC
:102D8C000220FCE708B5D0F814325B6898470020A5
:102D9C0008BD38B500F502750446284600F063FA04
:102DAC00012394F80812C4F8F431B4F80E32C4F8C4
:102DBC00F83101F01F03012B08D0022B0BD07BB98B
:102DCC002946204600F0DAF8002038BD2946204676
:102DDC0000F0CEF9F8E72946204600F0E1F9F3E7D8
:102DEC00204601F0800100F0C5FFEDE770B5044608
:102DFC00164601BBD0F8F431032B0DD1D0E9435367
:102E0C009D420BD9ED1AAB4228BF2B463146C0F878
:102E1C000C519AB200F077FA002070BDD0F8143241
:102E2C001B6923B190F8FC21032A00D19847204656
:102E3C0000F071FAF0E7D0F814329B69002BEBD05C
:102E4C0090F8FC21032AE7D19847E5E7F8B504464A
:102E5C0013460F4600293DD1D0F8F421022A0FD198
:102E6C00D0E90756B54214D9AD1B1946C561AAB2B3
:102E7C0000F041FA3B461A461946204600F0C2FFC4
:102E8C0094F80032012B02D1002384F80032002088
:102E9C00F8BD8369B3FBF6F506FB153565B99E42A3
:102EAC000AD8D0F8F821934206D22A4600F023FA29
:102EBC002B46C4F8F851DEE7D4F81432DB682BB19A
:102ECC0094F8FC21032A01D120469847204600F0B3
:102EDC002DFAD5E7D0F814325B69002BD7D090F8D7
:102EEC00FC21032AD3D19847D1E7002238B50446F8
:102EFC0040251146402300F011FF2B460022802173
:102F0C002046C4F8105100F009FF012384F8FC316D
:102F1C00D4F8183225622BB1D4F8143220465B68F1
:102F2C0021799847002038BD01740020704790F833
:102F3C00FC3180F8FD31042380F8FC31002070470F
:102F4C0090F8FD3180F8FC310020704708B590F8FE
:102F5C00FC21032A04D1D0F81432DB6903B1984761
:102F6C00002008BD10B50446802100F003FF204668
:102F7C00BDE81040002100F0FDBE000037B54B78D5
:102F8C0004460D46092B77D8DFE813F0C900E5009D
:102F9C007600D90076006D000A007600B9008D002D
:102FAC004B881A0A013A062A66D8DFE802F0041C9C
:102FBC00296565495200D0F810321B68207C0DF150
:102FCC0006019847BDF80620002A67D0EB88002B35
:102FDC0064D09A4228BF1A460146ADF80620204616
:102FEC0000F07CF95AE0027CD0F8143232B99B6ABA
:102FFC000DF10600984702234370E3E7DB6AF7E71D
:10300C00DBB2052B38D8DFE803F003070B0F1317DF
:10301C00D0F810325B68D1E7D0F810329B68CDE75E
:10302C00D0F81032DB68C9E7D0F810321B69C5E75D
:10303C00D0F810325B69C1E7D0F810329B69BDE75C
:10304C00037CCBB9D0F814320DF106005B6B9847BA
:10305C00B8E7037C83B9D0F814320DF106001B6B72
:10306C0098470723C8E78B8833B9CB8823B990F8E6
:10307C00FC314D88032B03D12046FFF773FF0DE085
:10308C0005F07F05294680F8FE5100F09FFE204692
:10309C0000F041F92DB1022384F8FC31002003B07B
:1030AC0030BD0123F8E78978304D01292970E3D828
:1030BC0090F8FC31022B0CD0032BDDD1B1B90223DB
:1030CC00416080F8FC31FFF75DFE204600F023F9EB
:1030DC00E4E70029F9D001210323416080F8FC3199
:1030EC002046FFF742FE0228EFD1C5E741680129CF
:1030FC00EBD0C9B2FFF746FE29786160F0E7CA88C9
:10310C00012AB9D190F8FC31022B03D0032BB3D197
:10311C00011D64E70146002341F8083F5FE790F882
:10312C00FC31023B012BA7D8D0F804320146003BFE
:10313C0018BF01235B00022241F80C3F4FE74B887C
:10314C00012BABD1C4F80432D4F8143229462046F2
:10315C009B689847B9E790F8FC31023B012B8BD860
:10316C004B88012B9AD10023ECE700BF21010020F2
:10317C0038B590F8FC310446032B0D460DD10B7974
:10318C00012B0AD8D0F814329B689847EB8813B9F6
:10319C00204600F0C0F8002038BDFFF7E3FEFAE748
:1031AC0070B50A78044602F06002202A0D468E881B
:1031BC000B7905D1D0F814329B689847002070BD6C
:1031CC004A78012A3AD0032A1DD0002AF6D190F869
:1031DC00FC21022A41D0032A1BD103F07F0500EB0E
:1031EC000515320619464CBF143505F5827500F0ED
:1031FC00DDFD003818BF0120022228602946204638
:10320C0000F06CF8DAE790F8FC21022A25D0032AAA
:10321C0003D02046FFF7A6FED0E74A8822B95A060B
:10322C0002D0194600F0A6FDD4F8143229462046E7
:10323C009B689847204600F06EF8BFE790F8FC2199
:10324C00022A0AD0032AE4D14A88002AB6D15E06A3
:10325C00F0D0194600F09CFDE6E75906AED01946B1
:10326C0000F088FDAAE70B7803704B784370CA789E
:10327C008B7803EB022343804A790B7903EB02230F
:10328C008380CA798B7903EB0223C380704710B516
:10329C000446802100F06EFD2046BDE81040002160
:1032AC0000F068BD30B588B10024013823460134E4
:1032BC00055D002DFAD1DBB201335B0013800B707E
:1032CC0003234B70022310F8014F04B930BD5A1C74
:1032DC00CC54D2B20233DBB28D54F4E71346022243
:1032EC0010B5C0E90633C0F8F4210A46002100F0FD
:1032FC007BFD002010BD08B513460A46002100F0E6
:10330C0073FD002008BD08B513460A46002100F0E5
:10331C0079FD002008BD08B50423C0F8F431002362
:10332C001A46194600F060FD002008BD08B50523BB
:10333C00C0F8F43100231A46194600F063FD002052
:10334C0008BD028143600022002310B5C0E90423AC
:10335C00016010BD018900224068FDF767B8018942
:10336C0001224068FDF762B8F8B50C4617461D46B9
:10337C00069E226893683B40AB4201D1002029E0B5
:10338C00731CF7D03EBB23685A6822F0E0025A60E7
:10339C006268B2F5827F0AD1A268B2F5004F02D002
:1033AC00B2F5806F03D11A6822F040021A60A26A4B
:1033BC00B2F5005F07D11A6822F400521A601A683D
:1033CC0042F400521A60012384F851300023032088
:1033DC0084F85030F8BDFCF7CDFE079BC01AB04204
:1033EC00C7D3D0E7036873B5044693F8500001289F
:1033FC005CD0012083F8500093F85100012804BFE1
:10340C00322083F85100002058659963DA879A8737
:10341C001863DA869A869864D864FF201A68126852
:10342C0052065FBF1A68136843F0400313602568A7
:10343C00EE8FB6B2CEB9FCF79DFE642301900093DB
:10344C008022334629462046FFF78EFF236820B1A1
:10345C0003205A6D42F010025A65012283F8512064
:10346C00002283F8502002B070BDEB8E9BB253B19A
:10347C002B689B689E07FBD52B6818732268D38E2C
:10348C00013B9BB2D3862368DA8F92B2002ACED04E
:10349C001A689268D207FBD51B68DB6801F8013B00
:1034AC002268D38F013B9BB2D387C0E70220DAE7B7
:1034BC00002313B504468DF804309DF80430FF2B1F
:1034CC0001D102B010BD0122204601A9FFF78AFFED
:1034DC00F3E7F0B50546FF270E46144685B08DF888
:1034EC000770FFF7E5FF2846FFF734FF46F040036F
:1034FC008DF80830230E8DF80930230C8DF80A3026
:10350C00230A8DF80D708DF80B308DF80C40AEB988
:10351C0095238DF80D3064230622286802A9FDF747
:10352C00F8FF15249DF907309DF80700002B03DAEE
:10353C00013C14F0FF0405D105B0F0BD082EEAD112
:10354C008723E6E7012228460DF10701FFF74AFF22
:10355C00E8E737B5154600220446FFF7BAFF28B155
:10356C002046FFF7FCFE002003B030BDFF238DF892
:10357C0007306423012220680DF10701FEF7CAF918
:10358C009DF80730FF2BF4D0102229462046FFF778
:10359C0029FF01220DF107012046FFF723FF01222D
:1035AC000DF107012046FFF71DFF2046FFF7D7FE60
:1035BC000120D9E71FB5D0E904321343044619D1D1
:1035CC006A460921FFF7C5FFA8B19DF8003003F04A
:1035DC00C003402B0ED19DF807209DF809309208AE
:1035EC0043EA02439DF8082043EA02239B0223612D
:1035FC0000236361206904B010BD37B515460A4637
:10360C0011210446FFF765FF28B12046FFF7A7FEFE
:10361C00002003B030BDFF238DF807306423012256
:10362C0020680DF10701FEF775F99DF80730FF2BA7
:10363C00F4D02946FF254FF400722046FFF7D2FE46
:10364C0001220DF1070120468DF80750FFF7CAFE45
:10365C0001220DF1070120468DF80750FFF7C2FE3D
:10366C002046FFF77CFE0120D3E773B516460A46C9
:10367C0018210446FFF72DFF054628B12046FFF719
:10368C006EFE002002B070BDFE2301228DF80730C3
:10369C000DF1070164232068FDF73BFF64234FF411
:1036AC00007231462068FDF734FFFF2301228DF8AC
:1036BC0007300DF1070164232068FDF72AFF64230E
:1036CC0001220DF107012068FDF723FF012220469E
:1036DC000DF10701FFF786FE9DF8073003F01F037D
:1036EC00052BCBD12046FFF7E3FE2A460D212046C1
:1036FC00FFF7EFFE0028C1D1012220460DF1070192
:10370C00FFF770FE9DF80730002BB7D12046FFF76E
:10371C0026FE0120B6E7382337B50446006840F290
:10372C002D15C361FEF7E8F92046FFF718FE0422B9
:10373C004FF0FF330DEB0201019320686423FDF77A
:10374C00E8FE042264230DEB02012068FDF7E1FE84
:10375C00042264230DEB02012068FDF7DAFE03203E
:10376C00FCF70EFD2046FFF7F5FD00222046114622
:10377C00FFF7AFFE01280BD14FF4D572082120467C
:10378C00FFF7A7FE43070AD52046FFF7E8FD03E045
:10379C00013DADB2002DE8D1002003B030BD0422B4
:1037AC00642320680DEB0201FEF7B4F89DF8073096
:1037BC00AA2BF1D1002237212046FFF78AFE4FF0C9
:1037CC00804229212046FFF784FE02460028F1D1D1
:1037DC003A212046FFF77DFE0028D5D10422204651
:1037EC000DEB0201FFF7FEFD2046FFF7B8FD0823A5
:1037FC002068C361FEF780F90120CEE71FB5FCF706
:10380C009FFC00F0D3F80E4C2046FFF784FF0028F5
:10381C00FAD000224FF480510A48FCF707FE01232E
:10382C004FF4805269460748CDE900230393FCF717
:10383C0023FD00F0B7F94FF47A70FCF7A1FCFAE71E
:10384C00280100200008014002460148FFF7D5BEC0
:10385C002801002002460148FFF707BF280100207D
:10386C000148FFF7A7BE00BF280100201022024B21
:10387C0002490348FFF765BD0008014040010020E4
:10388C002801002070B54FF480330225052294B036
:10389C000024CDE90A23CDE9115301224FF4E013A2
:1038AC000AA8CDE90C420F261393FDF7D9F94FF472
:1038BC008063294605A8CDE90834CDE90565079450
:1038CC00FDF762FC11214FF4807301A8CDE90113BF
:1038DC000494FDF755FDFDF709FD4FF47A73B0FB29
:1038EC00F3F0FCF7A9FC0420FCF7BAFC22463146A5
:1038FC004FF0FF30FCF764FC14B070BD0B480C4B60
:10390C004FF4007203604FF48273436000238360B2
:10391C00C3600361436182611022C261036243622E
:10392C0083620A23C362FEF7E7B800BF40010020A0
:10393C00003001401B4B10B59A6988B042F0100260
:10394C009A619A69184C02F010020092009A9A69D6
:10395C00204642F020029A619A69102102F020025E
:10396C000192019A9A6942F004029A619A6902F0F2
:10397C0004020292029A9A6942F008029A619B69C7
:10398C00012203F008030393039BFCF74FFD012373
:10399C001022204604A9CDE904230793FCF76CFC04
:1039AC0008B010BD001002400008014008B5FFF738
:1039BC0069FFFFF7BFFFBDE80840FFF79FBF00009E
:1039CC000268034B9A4201D1FCF7CCBB704700BF95
:1039DC00002C0140204B07B59A69032042F00102EC
:1039EC009A619B6903F001030193019BFCF7D6FBE1
:1039FC0000226FF00B001146FCF7E2FB00226FF087
:103A0C000A001146FCF7DCFB00226FF0090011469E
:103A1C00FCF7D6FB00226FF004001146FCF7D0FB3C
:103A2C0000226FF003001146FCF7CAFB00220F21A5
:103A3C006FF00100FCF7C4FB00220F214FF0FF30A8
:103A4C00FCF7BEFB054A536823F0E06343F00073B8
:103A5C00536003B05DF804FB00100240000001400D
:103A6C0010B50268124B86B09A421ED103F5604322
:103A7C009A69012442F480529A619B69A02203F452
:103A8C0080530193019B02230A4802A9CDE902232A
:103A9C00CDE90444FCF7F0FB402100230548CDE9B7
:103AAC00021302A90494FCF7E7FB06B010BD00BF9B
:103ABC00003001400008014010B5014688B00022DA
:103ACC001920FCF77DFB1920FCF7AAFB144B01A96C
:103ADC009A6903A842F400629A619B69114C03F441
:103AEC0000630293029BFDF71FFCFDF705FC0E4BD8
:103AFC00236040F2E733E3600C4BB0FBF3F00023A0
:103B0C000138606020462361A360FEF71BF920B9E1
:103B1C002046FEF732F808B010BD0120FBE700BFCD
:103B2C000010024098010020002C014040420F0080
:103B3C00FDF71ABCFEE7FEE7FEE7FEE770477047AD
:103B4C000148FCF799BD00BFF80300200148FEF7BF
:103B5C0023B800BF980100200F4B1A6842F00102F5
:103B6C001A6059680D4A0A405A601A6822F0847229
:103B7C0022F480321A601A6822F480221A605A6881
:103B8C0022F4FE025A604FF41F029A604FF000625A
:103B9C00034B9A60704700BF001002400000FFF812
:103BAC0000ED00E010B5094C002220460849FFF753
:103BBC00BBF820460749FFF7CCF820460649FEF72C
:103BCC0079FD2046BDE81040FFF7CAB8D4010020AB
:103BDC00A800002000000020DC00002007B50E4BE0
:103BEC0002689A4215D103F5DA33DA69052142F4F9
:103BFC000002DA61DB69002203F400030193142054
:103C0C00019BFCF7DDFA142003B05DF804EBFCF724
:103C1C0007BB03B05DF804FB005C004000F57B7152
:103C2C00D0F81C04FFF7B5B800EB4113D3F81C22F5
:103C3C00D0F81C04FFF7DAB800EB4113DA6BD0F8BC
:103C4C001C04FFF703B9D0F81C04FFF77FB910B5BB
:103C5C0004460121D0F81C04FFF766F9D4F81C04C3
:103C6C00BDE81040FFF741B910B50446D0F81C046C
:103C7C00FFF75DF9A36923B1024A136943F0060308
:103C8C00136110BD00ED00E0D0F81C04FFF758B92B
:103C9C0038B508230546184A184800240221C0E903
:103CAC0000230323C0F81C54C5F82002C0E90213FA
:103CBC00C0E906440462FCF7BEFB224621461823E9
:103CCC00D5F82002FCF7B2FF224658238021D5F804
:103CDC002002FCF7ABFF224698238121D5F8200265
:103CEC00FCF7A4FFD82322460121D5F82002FCF7CB
:103CFC009DFF204638BD00BF005C0040F80300204B
:103D0C0008B5D0F82002FCF7FDFB032896BF024B48
:103D1C000220185C08BD00BF3840000810B51446DE
:103D2C00D0F820021A462346FCF717FC032896BF4E
:103D3C00014B0220185C10BD3840000808B5D0F8C3
:103D4C002002FCF72DFC032896BF024B0220185CC6
:103D5C0008BD00BF3840000808B5D0F82002FCF7B9
:103D6C004CFF032896BF024B0220185C08BD00BF15
:103D7C003840000808B5D0F82002FCF7F3FE032801
:103D8C0096BF024B0220185C08BD00BF38400008EB
:103D9C0008B5D0F82002FCF70DFF032896BF024BA4
:103DAC000220185C08BD00BF384000080A06D0F895
:103DBC00203245BF01F07F0103EB411303EB4113AC
:103DCC0093F82A0058BF93F80A02704708B5D0F848
:103DDC002002FCF7AEFB032896BF024B0220185CB6
:103DEC0008BD00BF3840000808B5D0F82002FCF729
:103DFC0021FC032896BF024B0220185C08BD00BFB3
:103E0C003840000808B5D0F82002FCF7EAFB03287C
:103E1C0096BF024B0220185C08BD00BF384000085A
:103E2C0008B5D0F82002FCF7FEFB08BD004870472F
:103E3C001808002070477047122301480B80704708
:103E4C00C4000020042301480B807047D8000020D8
:103E5C0010B5044C0A4604482146FFF723FA2046C5
:103E6C0010BD00BF880A00203C40000810B5044C6F
:103E7C000A4604482146FFF715FA204610BD00BF3C
:103E8C00880A00204640000810B5044C0A46044835
:103E9C002146FFF707FA204610BD00BF880A002014
:103EAC005940000810B5044C0A4604482146FFF757
:103EBC00F9F9204610BD00BF880A00205B400008BD
:103ECC0010B5044C0A4604482146FFF7EBF920468E
:103EDC0010BD00BF880A0020664000080020704713
:103EEC0000207047084608B511461A46FFF7B2FC89
:103EFC0080F00100400040B208BD084608B51146EC
:103F0C001A46FFF7A1FC80F00100400040B208BD4A
:103F1C0038B50D461446FFF7A3FC4FF40073286028
:103F2C000020238038BD002070470020704700001F
:103F3C00002103E00B4B5B58435004310A480B4BF8
:103F4C0042189A42F6D30A4A02E0002342F8043B94
:103F5C00084B9A42F9D3FFF7FFFD00F017F8FFF773
:103F6C004DFC7047A440000800000020FC0000201D
:103F7C0000010020C80A0020FEE7034602449342D9
:103F8C0000D1704703F8011BF9E7000070B500265B
:103F9C000C4D0D4C641BA410A64209D100F01AF86C
:103FAC0000260A4D0A4C641BA410A64205D170BD14
:103FBC0055F8043B98470136EEE755F8043B984713
:103FCC000136F2E798400008984000089840000835
:103FDC00A0400008F8B500BFF8BC08BC9E4670476E
:0C3FEC00F8B500BFF8BC08BC9E4670474A
:103FF80002030405060708090A0B0C0D0E0F101022
:1040080000000600000000000000000000000000A2
:104018000000000003008083000000000000000092
:104028000102030406070809000000000102030456
:104038000002010252616C696D2054456B005354B3
:104048004D3332204D6173732053746F726167650D
:104058000031004D534320436F6E666967004D532E
:104068004320496E746572666163650000800202D0
:104078001F00000053544D202020202050726F64F0
:10408800756374202020202020202020302E3031FD
:0840980031010008793800082D
:0440A0000D01000806
:1040A4005D250008A9250008D525000800000000AA
:1040B40000000000AD260008B7260008000000003C
:1040C40000000000000000002D250008392500082C
:1040D400452500085125000809022000010104C0FB
:1040E4003209040000020806500507058102400059
:1040F400000705010240000009022000010104C07C
:104104003209040000020806500507058102000276
:1041140000070501020002000A0600020000004038
:104124000100000009072000010104C03209040055
:10413400000208065005070581024000000705013A
:104144000240000000A24A04453E0008513E000817
:104154005D3E0008793E0008953E0008B13E000827
:10416400CD3E0008120100020000004083042A57DB
:10417400000201020301000004030904E93E0008EF
:104184001D3F0008373F0008333F0008073F000881
:0C419400F13E0008ED3E000874400008F9
:0400000508003F3D73
:00000001FF
